{
  "_format": "hh-sol-artifact-1",
  "contractName": "WellFund",
  "sourceName": "src/contracts/WellFund.sol",
  "abi": [
    {
      "inputs": [
        {
          "internalType": "uint256",
          "name": "_projectTax",
          "type": "uint256"
        }
      ],
      "stateMutability": "nonpayable",
      "type": "constructor"
    },
    {
      "anonymous": false,
      "inputs": [
        {
          "indexed": false,
          "internalType": "uint256",
          "name": "id",
          "type": "uint256"
        },
        {
          "indexed": false,
          "internalType": "string",
          "name": "actionType",
          "type": "string"
        },
        {
          "indexed": true,
          "internalType": "address",
          "name": "executor",
          "type": "address"
        },
        {
          "indexed": false,
          "internalType": "uint256",
          "name": "timestamp",
          "type": "uint256"
        }
      ],
      "name": "Action",
      "type": "event"
    },
    {
      "inputs": [],
      "name": "balance",
      "outputs": [
        {
          "internalType": "uint256",
          "name": "",
          "type": "uint256"
        }
      ],
      "stateMutability": "view",
      "type": "function"
    },
    {
      "inputs": [
        {
          "internalType": "uint256",
          "name": "_taxPct",
          "type": "uint256"
        }
      ],
      "name": "changeTax",
      "outputs": [],
      "stateMutability": "nonpayable",
      "type": "function"
    },
    {
      "inputs": [
        {
          "internalType": "string",
          "name": "title",
          "type": "string"
        },
        {
          "internalType": "string",
          "name": "description",
          "type": "string"
        },
        {
          "internalType": "string",
          "name": "imageURL",
          "type": "string"
        },
        {
          "internalType": "uint256",
          "name": "cost",
          "type": "uint256"
        },
        {
          "internalType": "uint256",
          "name": "expiresAt",
          "type": "uint256"
        }
      ],
      "name": "createProject",
      "outputs": [
        {
          "internalType": "bool",
          "name": "",
          "type": "bool"
        }
      ],
      "stateMutability": "nonpayable",
      "type": "function"
    },
    {
      "inputs": [
        {
          "internalType": "uint256",
          "name": "id",
          "type": "uint256"
        }
      ],
      "name": "deleteProject",
      "outputs": [
        {
          "internalType": "bool",
          "name": "",
          "type": "bool"
        }
      ],
      "stateMutability": "nonpayable",
      "type": "function"
    },
    {
      "inputs": [
        {
          "internalType": "uint256",
          "name": "id",
          "type": "uint256"
        }
      ],
      "name": "donateProject",
      "outputs": [
        {
          "internalType": "bool",
          "name": "",
          "type": "bool"
        }
      ],
      "stateMutability": "payable",
      "type": "function"
    },
    {
      "inputs": [
        {
          "internalType": "uint256",
          "name": "id",
          "type": "uint256"
        }
      ],
      "name": "getBackers",
      "outputs": [
        {
          "components": [
            {
              "internalType": "address",
              "name": "owner",
              "type": "address"
            },
            {
              "internalType": "uint256",
              "name": "contribution",
              "type": "uint256"
            },
            {
              "internalType": "uint256",
              "name": "timestamp",
              "type": "uint256"
            },
            {
              "internalType": "bool",
              "name": "refunded",
              "type": "bool"
            }
          ],
          "internalType": "struct WellFund.backerStruct[]",
          "name": "",
          "type": "tuple[]"
        }
      ],
      "stateMutability": "view",
      "type": "function"
    },
    {
      "inputs": [
        {
          "internalType": "uint256",
          "name": "id",
          "type": "uint256"
        }
      ],
      "name": "getProject",
      "outputs": [
        {
          "components": [
            {
              "internalType": "uint256",
              "name": "id",
              "type": "uint256"
            },
            {
              "internalType": "address",
              "name": "owner",
              "type": "address"
            },
            {
              "internalType": "string",
              "name": "title",
              "type": "string"
            },
            {
              "internalType": "string",
              "name": "description",
              "type": "string"
            },
            {
              "internalType": "string",
              "name": "imageURL",
              "type": "string"
            },
            {
              "internalType": "uint256",
              "name": "cost",
              "type": "uint256"
            },
            {
              "internalType": "uint256",
              "name": "raised",
              "type": "uint256"
            },
            {
              "internalType": "uint256",
              "name": "timestamp",
              "type": "uint256"
            },
            {
              "internalType": "uint256",
              "name": "expiresAt",
              "type": "uint256"
            },
            {
              "internalType": "uint256",
              "name": "backers",
              "type": "uint256"
            },
            {
              "internalType": "enum WellFund.statusEnum",
              "name": "status",
              "type": "uint8"
            }
          ],
          "internalType": "struct WellFund.projectStruct",
          "name": "",
          "type": "tuple"
        }
      ],
      "stateMutability": "view",
      "type": "function"
    },
    {
      "inputs": [],
      "name": "getProjects",
      "outputs": [
        {
          "components": [
            {
              "internalType": "uint256",
              "name": "id",
              "type": "uint256"
            },
            {
              "internalType": "address",
              "name": "owner",
              "type": "address"
            },
            {
              "internalType": "string",
              "name": "title",
              "type": "string"
            },
            {
              "internalType": "string",
              "name": "description",
              "type": "string"
            },
            {
              "internalType": "string",
              "name": "imageURL",
              "type": "string"
            },
            {
              "internalType": "uint256",
              "name": "cost",
              "type": "uint256"
            },
            {
              "internalType": "uint256",
              "name": "raised",
              "type": "uint256"
            },
            {
              "internalType": "uint256",
              "name": "timestamp",
              "type": "uint256"
            },
            {
              "internalType": "uint256",
              "name": "expiresAt",
              "type": "uint256"
            },
            {
              "internalType": "uint256",
              "name": "backers",
              "type": "uint256"
            },
            {
              "internalType": "enum WellFund.statusEnum",
              "name": "status",
              "type": "uint8"
            }
          ],
          "internalType": "struct WellFund.projectStruct[]",
          "name": "",
          "type": "tuple[]"
        }
      ],
      "stateMutability": "view",
      "type": "function"
    },
    {
      "inputs": [],
      "name": "owner",
      "outputs": [
        {
          "internalType": "address",
          "name": "",
          "type": "address"
        }
      ],
      "stateMutability": "view",
      "type": "function"
    },
    {
      "inputs": [
        {
          "internalType": "uint256",
          "name": "id",
          "type": "uint256"
        }
      ],
      "name": "payoutProject",
      "outputs": [
        {
          "internalType": "bool",
          "name": "",
          "type": "bool"
        }
      ],
      "stateMutability": "nonpayable",
      "type": "function"
    },
    {
      "inputs": [],
      "name": "projectCount",
      "outputs": [
        {
          "internalType": "uint256",
          "name": "",
          "type": "uint256"
        }
      ],
      "stateMutability": "view",
      "type": "function"
    },
    {
      "inputs": [
        {
          "internalType": "uint256",
          "name": "",
          "type": "uint256"
        }
      ],
      "name": "projectExist",
      "outputs": [
        {
          "internalType": "bool",
          "name": "",
          "type": "bool"
        }
      ],
      "stateMutability": "view",
      "type": "function"
    },
    {
      "inputs": [],
      "name": "projectTax",
      "outputs": [
        {
          "internalType": "uint256",
          "name": "",
          "type": "uint256"
        }
      ],
      "stateMutability": "view",
      "type": "function"
    },
    {
      "inputs": [
        {
          "internalType": "uint256",
          "name": "id",
          "type": "uint256"
        }
      ],
      "name": "requestRefund",
      "outputs": [
        {
          "internalType": "bool",
          "name": "",
          "type": "bool"
        }
      ],
      "stateMutability": "nonpayable",
      "type": "function"
    },
    {
      "inputs": [],
      "name": "stats",
      "outputs": [
        {
          "internalType": "uint256",
          "name": "totalProjects",
          "type": "uint256"
        },
        {
          "internalType": "uint256",
          "name": "totalBacking",
          "type": "uint256"
        },
        {
          "internalType": "uint256",
          "name": "totalDonations",
          "type": "uint256"
        }
      ],
      "stateMutability": "view",
      "type": "function"
    },
    {
      "inputs": [
        {
          "internalType": "uint256",
          "name": "id",
          "type": "uint256"
        },
        {
          "internalType": "string",
          "name": "title",
          "type": "string"
        },
        {
          "internalType": "string",
          "name": "description",
          "type": "string"
        },
        {
          "internalType": "string",
          "name": "imageURL",
          "type": "string"
        },
        {
          "internalType": "uint256",
          "name": "expiresAt",
          "type": "uint256"
        }
      ],
      "name": "updateProject",
      "outputs": [
        {
          "internalType": "bool",
          "name": "",
          "type": "bool"
        }
      ],
      "stateMutability": "nonpayable",
      "type": "function"
    }
  ],
  "bytecode": "0x608060405234801561001057600080fd5b506040516122c83803806122c883398101604081905261002f91610049565b600080546001600160a01b03191633179055600155610062565b60006020828403121561005b57600080fd5b5051919050565b612257806100716000396000f3fe6080604052600436106100f35760003560e01c8063a4b2409e1161008a578063d24cd3ec11610059578063d24cd3ec146102b1578063d80528ae146102c7578063dcc6012814610301578063f0f3f2c81461032357600080fd5b8063a4b2409e1461022e578063ad70ca1a1461024e578063b69ef8a81461026e578063c9168b721461028457600080fd5b80638593054b116100c65780638593054b1461019357806385fbf22e146101c35780638da5cb5b146101d65780639a3fa8c71461020e57600080fd5b8063056c29ee146100f857806336fbad261461012d5780633e45c8af146101515780634cd0cb2814610173575b600080fd5b34801561010457600080fd5b50610118610113366004611d8d565b610350565b60405190151581526020015b60405180910390f35b34801561013957600080fd5b5061014360025481565b604051908152602001610124565b34801561015d57600080fd5b5061017161016c366004611e27565b6107b6565b005b34801561017f57600080fd5b5061011861018e366004611e27565b61080c565b34801561019f57600080fd5b506101186101ae366004611e27565b600a6020526000908152604090205460ff1681565b6101186101d1366004611e27565b6109b3565b3480156101e257600080fd5b506000546101f6906001600160a01b031681565b6040516001600160a01b039091168152602001610124565b34801561021a57600080fd5b50610118610229366004611e40565b610dc5565b34801561023a57600080fd5b50610118610249366004611e27565b611062565b34801561025a57600080fd5b50610118610269366004611e27565b611159565b34801561027a57600080fd5b5061014360035481565b34801561029057600080fd5b506102a461029f366004611e27565b611277565b6040516101249190611eda565b3480156102bd57600080fd5b5061014360015481565b3480156102d357600080fd5b506004546005546006546102e692919083565b60408051938452602084019290925290820152606001610124565b34801561030d57600080fd5b50610316611319565b6040516101249190612093565b34801561032f57600080fd5b5061034361033e366004611e27565b6115b4565b60405161012491906120f5565b60008086511161039f5760405162461bcd60e51b81526020600482015260156024820152745469746c652063616e6e6f7420626520656d70747960581b60448201526064015b60405180910390fd5b60008551116103f05760405162461bcd60e51b815260206004820152601b60248201527f4465736372697074696f6e2063616e6e6f7420626520656d70747900000000006044820152606401610396565b600084511161043c5760405162461bcd60e51b8152602060048201526018602482015277496d61676555524c2063616e6e6f7420626520656d70747960401b6044820152606401610396565b6000831161047f5760405162461bcd60e51b815260206004820152601060248201526f0436f73742063616e6e6f7420626520360841b6044820152606401610396565b610487611bde565b600254815233602080830191825260408301898152606084018990526080840188905260a084018790524260e085015261010084018690526007805460018101825560009190915284517fa66cc928b5edb82af9bd49922954155ab7b0942694bea4ce44661d9a8736c688600b90920291820190815593517fa66cc928b5edb82af9bd49922954155ab7b0942694bea4ce44661d9a8736c689820180546001600160a01b0319166001600160a01b0390921691909117905590518051859493610574937fa66cc928b5edb82af9bd49922954155ab7b0942694bea4ce44661d9a8736c68a01920190611c51565b5060608201518051610590916003840191602090910190611c51565b50608082015180516105ac916004840191602090910190611c51565b5060a0820151600582015560c0820151600682015560e0820151600782015561010082015160088201556101208201516009820155610140820151600a8201805460ff1916600183600481111561060557610605611f96565b021790555050600280546000908152600a602090815260408083208054600160ff1990911681179091553384526008835281842080548083018255908552938390208751600b909502019384558683015190840180546001600160a01b0319166001600160a01b039092169190911790558501518051869550929361069293908501929190910190611c51565b50606082015180516106ae916003840191602090910190611c51565b50608082015180516106ca916004840191602090910190611c51565b5060a0820151600582015560c0820151600682015560e0820151600782015561010082015160088201556101208201516009820155610140820151600a8201805460ff1916600183600481111561072357610723611f96565b021790555050506001600460000160008282546107409190612125565b9091555050600280543391600080516020612202833981519152919060006107678361213d565b9091555060408051918252606060208301819052600f908301526e141493d29150d50810d49150551151608a1b6080830152429082015260a00160405180910390a25060019695505050505050565b6000546001600160a01b031633146108075760405162461bcd60e51b8152602060048201526014602482015273027b7363c903337b9103a34329027bbb732b91d160651b6044820152606401610396565b600155565b6000806007838154811061082257610822612158565b60009182526020909120600a600b90920201015460ff16600481111561084a5761084a611f96565b146108975760405162461bcd60e51b815260206004820152601860248201527f50726f6a656374206e6f206c6f6e676572206f70656e656400000000000000006044820152606401610396565b600782815481106108aa576108aa612158565b60009182526020909120600b90910201600101546001600160a01b0316331461090b5760405162461bcd60e51b8152602060048201526013602482015272556e617574686172697a656420456e7469747960681b6044820152606401610396565b60036007838154811061092057610920612158565b60009182526020909120600a600b9092020101805460ff1916600183600481111561094d5761094d611f96565b021790555061095b82611894565b60408051838152606060208201819052600f908201526e141493d29150d50811115311551151608a1b6080820152428183015290513391600080516020612202833981519152919081900360a00190a2506001919050565b6000803411610a045760405162461bcd60e51b815260206004820152601d60248201527f416d6f756e74206d7573742062652067726561746572207468616e20300000006044820152606401610396565b6000828152600a602052604090205460ff16610a565760405162461bcd60e51b8152602060048201526011602482015270141c9bda9958dd081b9bdd08199bdd5b99607a1b6044820152606401610396565b600060078381548110610a6b57610a6b612158565b60009182526020909120600a600b90920201015460ff166004811115610a9357610a93611f96565b14610ae05760405162461bcd60e51b815260206004820152601960248201527f50726f6a656374206973206e6f206c6f6e676572206f70656e000000000000006044820152606401610396565b600160046001016000828254610af69190612125565b909155505060068054349190600090610b10908490612125565b925050819055503460078381548110610b2b57610b2b612158565b90600052602060002090600b02016006016000828254610b4b9190612125565b92505081905550600160078381548110610b6757610b67612158565b90600052602060002090600b02016009016000828254610b879190612125565b9091555050600082815260096020908152604080832081516080808201845233808352348387019081524284870181815260608087018b8152885460018082018b55998d529b8b902097516004909c0290970180546001600160a01b0319166001600160a01b03909c169b909b178b559251968a01969096559451600289015592516003909701805460ff1916971515979097179096558351888152948501829052600e918501919091526d141493d29150d508109050d2d15160921b90840152908201526000805160206122028339815191529060a00160405180910390a260078281548110610c7a57610c7a612158565b90600052602060002090600b02016005015460078381548110610c9f57610c9f612158565b90600052602060002090600b02016006015410610d4a57600160078381548110610ccb57610ccb612158565b60009182526020909120600a600b9092020101805460ff19166001836004811115610cf857610cf8611f96565b021790555060078281548110610d1057610d10612158565b90600052602060002090600b02016006015460036000828254610d339190612125565b90915550610d42905082611a02565b506001919050565b60078281548110610d5d57610d5d612158565b90600052602060002090600b0201600801544210610d4257600260078381548110610d8a57610d8a612158565b60009182526020909120600a600b9092020101805460ff19166001836004811115610db757610db7611f96565b0217905550610d4282611894565b600060078681548110610dda57610dda612158565b60009182526020909120600b90910201600101546001600160a01b03163314610e3b5760405162461bcd60e51b8152602060048201526013602482015272556e617574686f72697a656420456e7469747960681b6044820152606401610396565b6000855111610e845760405162461bcd60e51b81526020600482015260156024820152745469746c652063616e6e6f7420626520656d70747960581b6044820152606401610396565b6000845111610ed55760405162461bcd60e51b815260206004820152601b60248201527f4465736372697074696f6e2063616e6e6f7420626520656d70747900000000006044820152606401610396565b6000835111610f215760405162461bcd60e51b8152602060048201526018602482015277496d61676555524c2063616e6e6f7420626520656d70747960401b6044820152606401610396565b8460078781548110610f3557610f35612158565b90600052602060002090600b02016002019080519060200190610f59929190611c51565b508360078781548110610f6e57610f6e612158565b90600052602060002090600b02016003019080519060200190610f92929190611c51565b508260078781548110610fa757610fa7612158565b90600052602060002090600b02016004019080519060200190610fcb929190611c51565b508160078781548110610fe057610fe0612158565b90600052602060002090600b020160080181905550336001600160a01b0316600080516020612202833981519152874260405161104e929190918252606060208301819052600f908301526e141493d29150d50815541110551151608a1b6080830152604082015260a00190565b60405180910390a250600195945050505050565b600060026007838154811061107957611079612158565b60009182526020909120600a600b90920201015460ff1660048111156110a1576110a1611f96565b1415806110e957506003600783815481106110be576110be612158565b60009182526020909120600a600b90920201015460ff1660048111156110e6576110e6611f96565b14155b6111445760405162461bcd60e51b815260206004820152602660248201527f50726f6a656374206e6f74206d61726b656420617320726576657274206f722060448201526564656c65746560d01b6064820152608401610396565b600260078381548110610d8a57610d8a612158565b600060016007838154811061117057611170612158565b60009182526020909120600a600b90920201015460ff16600481111561119857611198611f96565b146111e55760405162461bcd60e51b815260206004820152601a60248201527f50726f6a656374206e6f206c6f6e67657220415050524f5645440000000000006044820152606401610396565b600782815481106111f8576111f8612158565b60009182526020909120600b90910201600101546001600160a01b031633148061122c57506000546001600160a01b031633145b61126e5760405162461bcd60e51b8152602060048201526013602482015272556e617574686f72697a656420456e7469747960681b6044820152606401610396565b610d4282611a02565b606060096000838152602001908152602001600020805480602002602001604051908101604052809291908181526020016000905b8282101561130e576000848152602090819020604080516080810182526004860290920180546001600160a01b03168352600180820154848601526002820154928401929092526003015460ff161515606083015290835290920191016112ac565b505050509050919050565b60606007805480602002602001604051908101604052809291908181526020016000905b828210156115ab5760008481526020908190206040805161016081018252600b86029092018054835260018101546001600160a01b031693830193909352600283018054929392918401916113919061216e565b80601f01602080910402602001604051908101604052809291908181526020018280546113bd9061216e565b801561140a5780601f106113df5761010080835404028352916020019161140a565b820191906000526020600020905b8154815290600101906020018083116113ed57829003601f168201915b505050505081526020016003820180546114239061216e565b80601f016020809104026020016040519081016040528092919081815260200182805461144f9061216e565b801561149c5780601f106114715761010080835404028352916020019161149c565b820191906000526020600020905b81548152906001019060200180831161147f57829003601f168201915b505050505081526020016004820180546114b59061216e565b80601f01602080910402602001604051908101604052809291908181526020018280546114e19061216e565b801561152e5780601f106115035761010080835404028352916020019161152e565b820191906000526020600020905b81548152906001019060200180831161151157829003601f168201915b505050918352505060058201546020820152600682015460408201526007820154606082015260088201546080820152600982015460a0820152600a82015460c09091019060ff16600481111561158757611587611f96565b600481111561159857611598611f96565b815250508152602001906001019061133d565b50505050905090565b6115bc611bde565b6000828152600a602052604090205460ff1661160e5760405162461bcd60e51b8152602060048201526011602482015270141c9bda9958dd081b9bdd08199bdd5b99607a1b6044820152606401610396565b6007828154811061162157611621612158565b90600052602060002090600b020160405180610160016040529081600082015481526020016001820160009054906101000a90046001600160a01b03166001600160a01b03166001600160a01b031681526020016002820180546116849061216e565b80601f01602080910402602001604051908101604052809291908181526020018280546116b09061216e565b80156116fd5780601f106116d2576101008083540402835291602001916116fd565b820191906000526020600020905b8154815290600101906020018083116116e057829003601f168201915b505050505081526020016003820180546117169061216e565b80601f01602080910402602001604051908101604052809291908181526020018280546117429061216e565b801561178f5780601f106117645761010080835404028352916020019161178f565b820191906000526020600020905b81548152906001019060200180831161177257829003601f168201915b505050505081526020016004820180546117a89061216e565b80601f01602080910402602001604051908101604052809291908181526020018280546117d49061216e565b80156118215780601f106117f657610100808354040283529160200191611821565b820191906000526020600020905b81548152906001019060200180831161180457829003601f168201915b505050918352505060058201546020820152600682015460408201526007820154606082015260088201546080820152600982015460a0820152600a82015460c09091019060ff16600481111561187a5761187a611f96565b600481111561188b5761188b611f96565b90525092915050565b60005b6000828152600960205260409020548110156119fe5760008281526009602052604081208054839081106118cd576118cd612158565b6000918252602080832060049092029091015485835260099091526040822080546001600160a01b039092169350908490811061190c5761190c612158565b9060005260206000209060040201600101549050600160096000868152602001908152602001600020848154811061194657611946612158565b906000526020600020906004020160030160006101000a81548160ff0219169083151502179055504260096000868152602001908152602001600020848154811061199357611993612158565b9060005260206000209060040201600201819055506119b28282611b79565b6001600460010160008282546119c891906121a9565b9091555050600680548291906000906119e29084906121a9565b92505081905550505080806119f69061213d565b915050611897565b5050565b600060078281548110611a1757611a17612158565b90600052602060002090600b02016006015490506000606460015483611a3d91906121c0565b611a4791906121df565b9050600460078481548110611a5e57611a5e612158565b60009182526020909120600a600b9092020101805460ff19166001836004811115611a8b57611a8b611f96565b0217905550611ad260078481548110611aa657611aa6612158565b600091825260209091206001600b9092020101546001600160a01b0316611acd83856121a9565b611b79565b600054611ae8906001600160a01b031682611b79565b60078381548110611afb57611afb612158565b90600052602060002090600b02016006015460036000828254611b1e91906121a9565b9091555050604080518481526060602082018190526010908201526f141493d29150d508141052510813d55560821b6080820152428183015290513391600080516020612202833981519152919081900360a00190a2505050565b6000826001600160a01b03168260405160006040518083038185875af1925050503d8060008114611bc6576040519150601f19603f3d011682016040523d82523d6000602084013e611bcb565b606091505b5050905080611bd957600080fd5b505050565b6040518061016001604052806000815260200160006001600160a01b03168152602001606081526020016060815260200160608152602001600081526020016000815260200160008152602001600081526020016000815260200160006004811115611c4c57611c4c611f96565b905290565b828054611c5d9061216e565b90600052602060002090601f016020900481019282611c7f5760008555611cc5565b82601f10611c9857805160ff1916838001178555611cc5565b82800160010185558215611cc5579182015b82811115611cc5578251825591602001919060010190611caa565b50611cd1929150611cd5565b5090565b5b80821115611cd15760008155600101611cd6565b634e487b7160e01b600052604160045260246000fd5b600082601f830112611d1157600080fd5b813567ffffffffffffffff80821115611d2c57611d2c611cea565b604051601f8301601f19908116603f01168101908282118183101715611d5457611d54611cea565b81604052838152866020858801011115611d6d57600080fd5b836020870160208301376000602085830101528094505050505092915050565b600080600080600060a08688031215611da557600080fd5b853567ffffffffffffffff80821115611dbd57600080fd5b611dc989838a01611d00565b96506020880135915080821115611ddf57600080fd5b611deb89838a01611d00565b95506040880135915080821115611e0157600080fd5b50611e0e88828901611d00565b9598949750949560608101359550608001359392505050565b600060208284031215611e3957600080fd5b5035919050565b600080600080600060a08688031215611e5857600080fd5b85359450602086013567ffffffffffffffff80821115611e7757600080fd5b611e8389838a01611d00565b95506040880135915080821115611e9957600080fd5b611ea589838a01611d00565b94506060880135915080821115611ebb57600080fd5b50611ec888828901611d00565b95989497509295608001359392505050565b602080825282518282018190526000919060409081850190868401855b82811015611f3c57815180516001600160a01b031685528681015187860152858101518686015260609081015115159085015260809093019290850190600101611ef7565b5091979650505050505050565b6000815180845260005b81811015611f6f57602081850181015186830182015201611f53565b81811115611f81576000602083870101525b50601f01601f19169290920160200192915050565b634e487b7160e01b600052602160045260246000fd5b60058110611fca57634e487b7160e01b600052602160045260246000fd5b9052565b6000610160825184526020830151611ff160208601826001600160a01b03169052565b50604083015181604086015261200982860182611f49565b915050606083015184820360608601526120238282611f49565b9150506080830151848203608086015261203d8282611f49565b91505060a083015160a085015260c083015160c085015260e083015160e08501526101008084015181860152506101208084015181860152506101408084015161208982870182611fac565b5090949350505050565b6000602080830181845280855180835260408601915060408160051b870101925083870160005b828110156120e857603f198886030184526120d6858351611fce565b945092850192908501906001016120ba565b5092979650505050505050565b6020815260006121086020830184611fce565b9392505050565b634e487b7160e01b600052601160045260246000fd5b600082198211156121385761213861210f565b500190565b60006000198214156121515761215161210f565b5060010190565b634e487b7160e01b600052603260045260246000fd5b600181811c9082168061218257607f821691505b602082108114156121a357634e487b7160e01b600052602260045260246000fd5b50919050565b6000828210156121bb576121bb61210f565b500390565b60008160001904831182151516156121da576121da61210f565b500290565b6000826121fc57634e487b7160e01b600052601260045260246000fd5b50049056feaee8e5d3bbb2f71a951b5632cee20f7ac487b9f8ab4f66a236f7694b13af7c6aa2646970667358221220dd6d2aff084ec3036b96b78f1ab8a8ead1d147c36d047c34e94232deca2fe89864736f6c634300080b0033",
  "linkReferences": {},
  "deployedLinkReferences": {}
}